{
	"data": {
		"bytecode": {
			"linkReferences": {},
			"object": "6080604052348015600e575f80fd5b5061045e8061001c5f395ff3fe608060405234801561000f575f80fd5b506004361061004a575f3560e01c806327e235e31461004e57806348929b781461007e57806374d729fb1461009a578063a55f800f146100b9575b5f80fd5b6100686004803603810190610063919061024b565b6100d5565b604051610075919061028e565b60405180910390f35b610098600480360381019061009391906102d1565b6100e9565b005b6100a261012e565b6040516100b092919061031e565b60405180910390f35b6100d360048036038101906100ce9190610345565b610144565b005b5f602052805f5260405f205f915090505481565b805f808473ffffffffffffffffffffffffffffffffffffffff1673ffffffffffffffffffffffffffffffffffffffff1681526020019081526020015f20819055505050565b5f805f3390505f30905081819350935050509091565b805f808573ffffffffffffffffffffffffffffffffffffffff1673ffffffffffffffffffffffffffffffffffffffff1681526020019081526020015f205f82825461018f91906103c2565b92505081905550805f808473ffffffffffffffffffffffffffffffffffffffff1673ffffffffffffffffffffffffffffffffffffffff1681526020019081526020015f205f8282546101e191906103f5565b92505081905550505050565b5f80fd5b5f73ffffffffffffffffffffffffffffffffffffffff82169050919050565b5f61021a826101f1565b9050919050565b61022a81610210565b8114610234575f80fd5b50565b5f8135905061024581610221565b92915050565b5f602082840312156102605761025f6101ed565b5b5f61026d84828501610237565b91505092915050565b5f819050919050565b61028881610276565b82525050565b5f6020820190506102a15f83018461027f565b92915050565b6102b081610276565b81146102ba575f80fd5b50565b5f813590506102cb816102a7565b92915050565b5f80604083850312156102e7576102e66101ed565b5b5f6102f485828601610237565b9250506020610305858286016102bd565b9150509250929050565b61031881610210565b82525050565b5f6040820190506103315f83018561030f565b61033e602083018461030f565b9392505050565b5f805f6060848603121561035c5761035b6101ed565b5b5f61036986828701610237565b935050602061037a86828701610237565b925050604061038b868287016102bd565b9150509250925092565b7f4e487b71000000000000000000000000000000000000000000000000000000005f52601160045260245ffd5b5f6103cc82610276565b91506103d783610276565b92508282039050818111156103ef576103ee610395565b5b92915050565b5f6103ff82610276565b915061040a83610276565b925082820190508082111561042257610421610395565b5b9291505056fea2646970667358221220968d5345af939a1d6d94eb92e0ae507972be24d1f7d7de77dce9f555b2ff3b8b64736f6c63430008190033",
			"opcodes": "PUSH1 0x80 PUSH1 0x40 MSTORE CALLVALUE DUP1 ISZERO PUSH1 0xE JUMPI PUSH0 DUP1 REVERT JUMPDEST POP PUSH2 0x45E DUP1 PUSH2 0x1C PUSH0 CODECOPY PUSH0 RETURN INVALID PUSH1 0x80 PUSH1 0x40 MSTORE CALLVALUE DUP1 ISZERO PUSH2 0xF JUMPI PUSH0 DUP1 REVERT JUMPDEST POP PUSH1 0x4 CALLDATASIZE LT PUSH2 0x4A JUMPI PUSH0 CALLDATALOAD PUSH1 0xE0 SHR DUP1 PUSH4 0x27E235E3 EQ PUSH2 0x4E JUMPI DUP1 PUSH4 0x48929B78 EQ PUSH2 0x7E JUMPI DUP1 PUSH4 0x74D729FB EQ PUSH2 0x9A JUMPI DUP1 PUSH4 0xA55F800F EQ PUSH2 0xB9 JUMPI JUMPDEST PUSH0 DUP1 REVERT JUMPDEST PUSH2 0x68 PUSH1 0x4 DUP1 CALLDATASIZE SUB DUP2 ADD SWAP1 PUSH2 0x63 SWAP2 SWAP1 PUSH2 0x24B JUMP JUMPDEST PUSH2 0xD5 JUMP JUMPDEST PUSH1 0x40 MLOAD PUSH2 0x75 SWAP2 SWAP1 PUSH2 0x28E JUMP JUMPDEST PUSH1 0x40 MLOAD DUP1 SWAP2 SUB SWAP1 RETURN JUMPDEST PUSH2 0x98 PUSH1 0x4 DUP1 CALLDATASIZE SUB DUP2 ADD SWAP1 PUSH2 0x93 SWAP2 SWAP1 PUSH2 0x2D1 JUMP JUMPDEST PUSH2 0xE9 JUMP JUMPDEST STOP JUMPDEST PUSH2 0xA2 PUSH2 0x12E JUMP JUMPDEST PUSH1 0x40 MLOAD PUSH2 0xB0 SWAP3 SWAP2 SWAP1 PUSH2 0x31E JUMP JUMPDEST PUSH1 0x40 MLOAD DUP1 SWAP2 SUB SWAP1 RETURN JUMPDEST PUSH2 0xD3 PUSH1 0x4 DUP1 CALLDATASIZE SUB DUP2 ADD SWAP1 PUSH2 0xCE SWAP2 SWAP1 PUSH2 0x345 JUMP JUMPDEST PUSH2 0x144 JUMP JUMPDEST STOP JUMPDEST PUSH0 PUSH1 0x20 MSTORE DUP1 PUSH0 MSTORE PUSH1 0x40 PUSH0 KECCAK256 PUSH0 SWAP2 POP SWAP1 POP SLOAD DUP2 JUMP JUMPDEST DUP1 PUSH0 DUP1 DUP5 PUSH20 0xFFFFFFFFFFFFFFFFFFFFFFFFFFFFFFFFFFFFFFFF AND PUSH20 0xFFFFFFFFFFFFFFFFFFFFFFFFFFFFFFFFFFFFFFFF AND DUP2 MSTORE PUSH1 0x20 ADD SWAP1 DUP2 MSTORE PUSH1 0x20 ADD PUSH0 KECCAK256 DUP2 SWAP1 SSTORE POP POP POP JUMP JUMPDEST PUSH0 DUP1 PUSH0 CALLER SWAP1 POP PUSH0 ADDRESS SWAP1 POP DUP2 DUP2 SWAP4 POP SWAP4 POP POP POP SWAP1 SWAP2 JUMP JUMPDEST DUP1 PUSH0 DUP1 DUP6 PUSH20 0xFFFFFFFFFFFFFFFFFFFFFFFFFFFFFFFFFFFFFFFF AND PUSH20 0xFFFFFFFFFFFFFFFFFFFFFFFFFFFFFFFFFFFFFFFF AND DUP2 MSTORE PUSH1 0x20 ADD SWAP1 DUP2 MSTORE PUSH1 0x20 ADD PUSH0 KECCAK256 PUSH0 DUP3 DUP3 SLOAD PUSH2 0x18F SWAP2 SWAP1 PUSH2 0x3C2 JUMP JUMPDEST SWAP3 POP POP DUP2 SWAP1 SSTORE POP DUP1 PUSH0 DUP1 DUP5 PUSH20 0xFFFFFFFFFFFFFFFFFFFFFFFFFFFFFFFFFFFFFFFF AND PUSH20 0xFFFFFFFFFFFFFFFFFFFFFFFFFFFFFFFFFFFFFFFF AND DUP2 MSTORE PUSH1 0x20 ADD SWAP1 DUP2 MSTORE PUSH1 0x20 ADD PUSH0 KECCAK256 PUSH0 DUP3 DUP3 SLOAD PUSH2 0x1E1 SWAP2 SWAP1 PUSH2 0x3F5 JUMP JUMPDEST SWAP3 POP POP DUP2 SWAP1 SSTORE POP POP POP POP JUMP JUMPDEST PUSH0 DUP1 REVERT JUMPDEST PUSH0 PUSH20 0xFFFFFFFFFFFFFFFFFFFFFFFFFFFFFFFFFFFFFFFF DUP3 AND SWAP1 POP SWAP2 SWAP1 POP JUMP JUMPDEST PUSH0 PUSH2 0x21A DUP3 PUSH2 0x1F1 JUMP JUMPDEST SWAP1 POP SWAP2 SWAP1 POP JUMP JUMPDEST PUSH2 0x22A DUP2 PUSH2 0x210 JUMP JUMPDEST DUP2 EQ PUSH2 0x234 JUMPI PUSH0 DUP1 REVERT JUMPDEST POP JUMP JUMPDEST PUSH0 DUP2 CALLDATALOAD SWAP1 POP PUSH2 0x245 DUP2 PUSH2 0x221 JUMP JUMPDEST SWAP3 SWAP2 POP POP JUMP JUMPDEST PUSH0 PUSH1 0x20 DUP3 DUP5 SUB SLT ISZERO PUSH2 0x260 JUMPI PUSH2 0x25F PUSH2 0x1ED JUMP JUMPDEST JUMPDEST PUSH0 PUSH2 0x26D DUP5 DUP3 DUP6 ADD PUSH2 0x237 JUMP JUMPDEST SWAP2 POP POP SWAP3 SWAP2 POP POP JUMP JUMPDEST PUSH0 DUP2 SWAP1 POP SWAP2 SWAP1 POP JUMP JUMPDEST PUSH2 0x288 DUP2 PUSH2 0x276 JUMP JUMPDEST DUP3 MSTORE POP POP JUMP JUMPDEST PUSH0 PUSH1 0x20 DUP3 ADD SWAP1 POP PUSH2 0x2A1 PUSH0 DUP4 ADD DUP5 PUSH2 0x27F JUMP JUMPDEST SWAP3 SWAP2 POP POP JUMP JUMPDEST PUSH2 0x2B0 DUP2 PUSH2 0x276 JUMP JUMPDEST DUP2 EQ PUSH2 0x2BA JUMPI PUSH0 DUP1 REVERT JUMPDEST POP JUMP JUMPDEST PUSH0 DUP2 CALLDATALOAD SWAP1 POP PUSH2 0x2CB DUP2 PUSH2 0x2A7 JUMP JUMPDEST SWAP3 SWAP2 POP POP JUMP JUMPDEST PUSH0 DUP1 PUSH1 0x40 DUP4 DUP6 SUB SLT ISZERO PUSH2 0x2E7 JUMPI PUSH2 0x2E6 PUSH2 0x1ED JUMP JUMPDEST JUMPDEST PUSH0 PUSH2 0x2F4 DUP6 DUP3 DUP7 ADD PUSH2 0x237 JUMP JUMPDEST SWAP3 POP POP PUSH1 0x20 PUSH2 0x305 DUP6 DUP3 DUP7 ADD PUSH2 0x2BD JUMP JUMPDEST SWAP2 POP POP SWAP3 POP SWAP3 SWAP1 POP JUMP JUMPDEST PUSH2 0x318 DUP2 PUSH2 0x210 JUMP JUMPDEST DUP3 MSTORE POP POP JUMP JUMPDEST PUSH0 PUSH1 0x40 DUP3 ADD SWAP1 POP PUSH2 0x331 PUSH0 DUP4 ADD DUP6 PUSH2 0x30F JUMP JUMPDEST PUSH2 0x33E PUSH1 0x20 DUP4 ADD DUP5 PUSH2 0x30F JUMP JUMPDEST SWAP4 SWAP3 POP POP POP JUMP JUMPDEST PUSH0 DUP1 PUSH0 PUSH1 0x60 DUP5 DUP7 SUB SLT ISZERO PUSH2 0x35C JUMPI PUSH2 0x35B PUSH2 0x1ED JUMP JUMPDEST JUMPDEST PUSH0 PUSH2 0x369 DUP7 DUP3 DUP8 ADD PUSH2 0x237 JUMP JUMPDEST SWAP4 POP POP PUSH1 0x20 PUSH2 0x37A DUP7 DUP3 DUP8 ADD PUSH2 0x237 JUMP JUMPDEST SWAP3 POP POP PUSH1 0x40 PUSH2 0x38B DUP7 DUP3 DUP8 ADD PUSH2 0x2BD JUMP JUMPDEST SWAP2 POP POP SWAP3 POP SWAP3 POP SWAP3 JUMP JUMPDEST PUSH32 0x4E487B7100000000000000000000000000000000000000000000000000000000 PUSH0 MSTORE PUSH1 0x11 PUSH1 0x4 MSTORE PUSH1 0x24 PUSH0 REVERT JUMPDEST PUSH0 PUSH2 0x3CC DUP3 PUSH2 0x276 JUMP JUMPDEST SWAP2 POP PUSH2 0x3D7 DUP4 PUSH2 0x276 JUMP JUMPDEST SWAP3 POP DUP3 DUP3 SUB SWAP1 POP DUP2 DUP2 GT ISZERO PUSH2 0x3EF JUMPI PUSH2 0x3EE PUSH2 0x395 JUMP JUMPDEST JUMPDEST SWAP3 SWAP2 POP POP JUMP JUMPDEST PUSH0 PUSH2 0x3FF DUP3 PUSH2 0x276 JUMP JUMPDEST SWAP2 POP PUSH2 0x40A DUP4 PUSH2 0x276 JUMP JUMPDEST SWAP3 POP DUP3 DUP3 ADD SWAP1 POP DUP1 DUP3 GT ISZERO PUSH2 0x422 JUMPI PUSH2 0x421 PUSH2 0x395 JUMP JUMPDEST JUMPDEST SWAP3 SWAP2 POP POP JUMP INVALID LOG2 PUSH5 0x6970667358 0x22 SLT KECCAK256 SWAP7 DUP14 MSTORE8 GASLIMIT 0xAF SWAP4 SWAP11 SAR PUSH14 0x94EB92E0AE507972BE24D1F7D7DE PUSH24 0xDCE9F555B2FF3B8B64736F6C634300081900330000000000 "
		},
		"gasEstimates": {
			"creation": {
				"codeDepositCost": "223600",
				"executionCost": "261",
				"totalCost": "223861"
			},
			"external": {
				"balances(address)": "2779",
				"setSomeonesBalance(address,uint256)": "22822",
				"transferTokensBetweenAddresses(address,address,uint256)": "infinite",
				"wh0ami()": "infinite"
			}
		},
		"methodIdentifiers": {
			"balances(address)": "27e235e3",
			"setSomeonesBalance(address,uint256)": "48929b78",
			"transferTokensBetweenAddresses(address,address,uint256)": "a55f800f",
			"wh0ami()": "74d729fb"
		}
	},
	"abi": [
		{
			"inputs": [
				{
					"internalType": "address",
					"name": "",
					"type": "address"
				}
			],
			"name": "balances",
			"outputs": [
				{
					"internalType": "uint256",
					"name": "",
					"type": "uint256"
				}
			],
			"stateMutability": "view",
			"type": "function"
		},
		{
			"inputs": [
				{
					"internalType": "address",
					"name": "owner",
					"type": "address"
				},
				{
					"internalType": "uint256",
					"name": "amount",
					"type": "uint256"
				}
			],
			"name": "setSomeonesBalance",
			"outputs": [],
			"stateMutability": "nonpayable",
			"type": "function"
		},
		{
			"inputs": [
				{
					"internalType": "address",
					"name": "sender",
					"type": "address"
				},
				{
					"internalType": "address",
					"name": "receiver",
					"type": "address"
				},
				{
					"internalType": "uint256",
					"name": "amount",
					"type": "uint256"
				}
			],
			"name": "transferTokensBetweenAddresses",
			"outputs": [],
			"stateMutability": "nonpayable",
			"type": "function"
		},
		{
			"inputs": [],
			"name": "wh0ami",
			"outputs": [
				{
					"internalType": "address",
					"name": "",
					"type": "address"
				},
				{
					"internalType": "address",
					"name": "",
					"type": "address"
				}
			],
			"stateMutability": "view",
			"type": "function"
		}
	]
}