{
	"data": {
		"bytecode": {
			"linkReferences": {},
			"object": "6080604052348015600e575f80fd5b506101f58061001c5f395ff3fe608060405234801561000f575f80fd5b5060043610610029575f3560e01c806337373ef41461002d575b5f80fd5b610047600480360381019061004291906100f4565b61005d565b604051610054919061012e565b60405180910390f35b5f600582036100a1576040517f08c379a0000000000000000000000000000000000000000000000000000000008152600401610098906101a1565b60405180910390fd5b600582146100b05760506100b3565b60375b60ff169050919050565b5f80fd5b5f819050919050565b6100d3816100c1565b81146100dd575f80fd5b50565b5f813590506100ee816100ca565b92915050565b5f60208284031215610109576101086100bd565b5b5f610116848285016100e0565b91505092915050565b610128816100c1565b82525050565b5f6020820190506101415f83018461011f565b92915050565b5f82825260208201905092915050565b7f66697665206973206e6f742076616c69640000000000000000000000000000005f82015250565b5f61018b601183610147565b915061019682610157565b602082019050919050565b5f6020820190508181035f8301526101b88161017f565b905091905056fea26469706673582212205be649ac7424f5822c790352e9b79ca87adab7635055442a5714aa7122c9495e64736f6c63430008190033",
			"opcodes": "PUSH1 0x80 PUSH1 0x40 MSTORE CALLVALUE DUP1 ISZERO PUSH1 0xE JUMPI PUSH0 DUP1 REVERT JUMPDEST POP PUSH2 0x1F5 DUP1 PUSH2 0x1C PUSH0 CODECOPY PUSH0 RETURN INVALID PUSH1 0x80 PUSH1 0x40 MSTORE CALLVALUE DUP1 ISZERO PUSH2 0xF JUMPI PUSH0 DUP1 REVERT JUMPDEST POP PUSH1 0x4 CALLDATASIZE LT PUSH2 0x29 JUMPI PUSH0 CALLDATALOAD PUSH1 0xE0 SHR DUP1 PUSH4 0x37373EF4 EQ PUSH2 0x2D JUMPI JUMPDEST PUSH0 DUP1 REVERT JUMPDEST PUSH2 0x47 PUSH1 0x4 DUP1 CALLDATASIZE SUB DUP2 ADD SWAP1 PUSH2 0x42 SWAP2 SWAP1 PUSH2 0xF4 JUMP JUMPDEST PUSH2 0x5D JUMP JUMPDEST PUSH1 0x40 MLOAD PUSH2 0x54 SWAP2 SWAP1 PUSH2 0x12E JUMP JUMPDEST PUSH1 0x40 MLOAD DUP1 SWAP2 SUB SWAP1 RETURN JUMPDEST PUSH0 PUSH1 0x5 DUP3 SUB PUSH2 0xA1 JUMPI PUSH1 0x40 MLOAD PUSH32 0x8C379A000000000000000000000000000000000000000000000000000000000 DUP2 MSTORE PUSH1 0x4 ADD PUSH2 0x98 SWAP1 PUSH2 0x1A1 JUMP JUMPDEST PUSH1 0x40 MLOAD DUP1 SWAP2 SUB SWAP1 REVERT JUMPDEST PUSH1 0x5 DUP3 EQ PUSH2 0xB0 JUMPI PUSH1 0x50 PUSH2 0xB3 JUMP JUMPDEST PUSH1 0x37 JUMPDEST PUSH1 0xFF AND SWAP1 POP SWAP2 SWAP1 POP JUMP JUMPDEST PUSH0 DUP1 REVERT JUMPDEST PUSH0 DUP2 SWAP1 POP SWAP2 SWAP1 POP JUMP JUMPDEST PUSH2 0xD3 DUP2 PUSH2 0xC1 JUMP JUMPDEST DUP2 EQ PUSH2 0xDD JUMPI PUSH0 DUP1 REVERT JUMPDEST POP JUMP JUMPDEST PUSH0 DUP2 CALLDATALOAD SWAP1 POP PUSH2 0xEE DUP2 PUSH2 0xCA JUMP JUMPDEST SWAP3 SWAP2 POP POP JUMP JUMPDEST PUSH0 PUSH1 0x20 DUP3 DUP5 SUB SLT ISZERO PUSH2 0x109 JUMPI PUSH2 0x108 PUSH2 0xBD JUMP JUMPDEST JUMPDEST PUSH0 PUSH2 0x116 DUP5 DUP3 DUP6 ADD PUSH2 0xE0 JUMP JUMPDEST SWAP2 POP POP SWAP3 SWAP2 POP POP JUMP JUMPDEST PUSH2 0x128 DUP2 PUSH2 0xC1 JUMP JUMPDEST DUP3 MSTORE POP POP JUMP JUMPDEST PUSH0 PUSH1 0x20 DUP3 ADD SWAP1 POP PUSH2 0x141 PUSH0 DUP4 ADD DUP5 PUSH2 0x11F JUMP JUMPDEST SWAP3 SWAP2 POP POP JUMP JUMPDEST PUSH0 DUP3 DUP3 MSTORE PUSH1 0x20 DUP3 ADD SWAP1 POP SWAP3 SWAP2 POP POP JUMP JUMPDEST PUSH32 0x66697665206973206E6F742076616C6964000000000000000000000000000000 PUSH0 DUP3 ADD MSTORE POP JUMP JUMPDEST PUSH0 PUSH2 0x18B PUSH1 0x11 DUP4 PUSH2 0x147 JUMP JUMPDEST SWAP2 POP PUSH2 0x196 DUP3 PUSH2 0x157 JUMP JUMPDEST PUSH1 0x20 DUP3 ADD SWAP1 POP SWAP2 SWAP1 POP JUMP JUMPDEST PUSH0 PUSH1 0x20 DUP3 ADD SWAP1 POP DUP2 DUP2 SUB PUSH0 DUP4 ADD MSTORE PUSH2 0x1B8 DUP2 PUSH2 0x17F JUMP JUMPDEST SWAP1 POP SWAP2 SWAP1 POP JUMP INVALID LOG2 PUSH5 0x6970667358 0x22 SLT KECCAK256 JUMPDEST 0xE6 BLOBHASH 0xAC PUSH21 0x24F5822C790352E9B79CA87ADAB7635055442A5714 0xAA PUSH18 0x22C9495E64736F6C63430008190033000000 "
		},
		"gasEstimates": {
			"creation": {
				"codeDepositCost": "100200",
				"executionCost": "145",
				"totalCost": "100345"
			},
			"external": {
				"mustNotBeFive(uint256)": "infinite"
			}
		},
		"methodIdentifiers": {
			"mustNotBeFive(uint256)": "37373ef4"
		}
	},
	"abi": [
		{
			"inputs": [
				{
					"internalType": "uint256",
					"name": "x",
					"type": "uint256"
				}
			],
			"name": "mustNotBeFive",
			"outputs": [
				{
					"internalType": "uint256",
					"name": "",
					"type": "uint256"
				}
			],
			"stateMutability": "pure",
			"type": "function"
		}
	]
}